:060000000A128A110E280D
:10000800FE00030EF0000A08F1007F08F2000A164D
:100018008A11AD2C0A128A1111288313DD30FD00D4
:100028001030FE00BC30FF00C43084000A168A116C
:1000380083200A128A116830FD001F30FE00E63066
:10004800FF00603084000A168A1183200A128A1180
:10005800A0308400C4300A168A15DE270A128A11D5
:100068004230840060300A168A15DE270A128A1187
:10007800F901FA0183010A128A114228831603132F
:100088005A08E0005B08E1005C08E200E601E60AC5
:10009800E301DF01E401E5010A168A11A8230A1227
:1000A8008A11E03083120313A4000030A500A601D2
:1000B8000A168A11A3250A128A113130F400003079
:1000C8000A168A11F2200A128A113030F40001301F
:1000D8000A168A11F2200A128A113130F40002300D
:1000E8000A168A11F2200A128A113030F4000330FD
:1000F8000A168A11F2200A128A11F40104300A162B
:100108008A11F2200A128A110A3083120313A000FE
:100118000030A1000A168A115A200A128A1174089E
:1001280083120313A3007308A2000A168A111F245E
:100138000A128A1183120313200883160313E80096
:1001480064306802031CA928AA28AC286330E80098
:100158000A128A15EB200A128A1183160313E90082
:10016800D030DD000730DE00FF30DD070318DE0A7F
:10017800FF30DE075D0A031DC5285E0A031DC5287A
:10018800C628B8283E306906031DCB28CC28E828A5
:100198007030F3008830F400E0300A168A114F21DD
:1001A8000A128A11E03083120313A4000030A5005C
:1001B80083160313680883120313A6000A168A110C
:1001C800A3250A128A11E92B3D306906031DED2883
:1001D800EE282029063063020318F328F428202982
:1001E800630883120313C0004007C43E84008313CE
:1001F8000008F300840A00088403F400E0300A16BB
:100208008A114F210A128A11E03083120313A400C5
:100218000030A50083160313680883120313A60091
:100228000A168A11A3250A128A110130FF007F08D5
:1002380083160313E307E92B3B306906031D2529C1
:1002480026295329630803192A292B295329013000
:10025800E302630883120313C0004007C43E84000E
:1002680083130008F300840A00088403F400E030D4
:100278000A168A114F210A128A11E03083120313D9
:10028800A4000030A5008316031368088312031323
:10029800A6000A168A11A3250A128A11E92B3730FB
:1002A80069060319582959295F292F306906031D42
:1002B8005E295F29A4296603031D63296429A429EB
:1002C800F30101300A168A1100230A128A11043038
:1002D80083120313C1003D30C000C00B7129C10B4C
:1002E80071299F3083120313A0008730A10080304A
:1002F800A2000A168A1199220A128A11C63083129C
:100308000313A70020300A168A1192200A128A11B4
:10031800F3010F300A168A1100230A128A11A53038
:1003280083120313C000C00B97299A290230831641
:100338000313E600E701E70A831203131215E92BFA
:1003480011306906031DA929AA294B2A043066061B
:10035800031DAF29B0294B2A3A2AF30101300A16A6
:100368008A1100230A128A116B3083120313A0002A
:100378008830A1008030A2000A168A1199220A1238
:100388008A11083083160313E6000830E700E92BCA
:10039800F30101300A168A1100230A128A1110305B
:1003A80083160313E6000430E700E92B823083123A
:1003B8000313A4008830A50083160313680883126A
:1003C8000313A6000A168A11A3250A128A110A1213
:1003D8008A1563220A128A11F30101300A168A115A
:1003E80000230A128A11043083160313E60005302D
:1003F800E700E92B8E3083120313A4008830A50090
:1004080083160313680883120313A6000A168A11B9
:10041800A3250A128A11F30101300A168A11002352
:100428000A128A11403083160313E6001030E700E1
:10043800E92B883083120313A4008830A5008316A3
:100448000313680883120313A6000A168A11A3254A
:100458000A128A11F30101300A168A1100230A12BE
:100468008A11803083160313E6009E295F08003A3C
:100478000319B129013A0319CC29033A0319DA29D6
:10048800013A0319FE29073A03191D2AE92B2230DC
:100498006906031D502A512A672A04306606031983
:1004A800562A572A5D2A08306606031D5C2A5D2AEB
:1004B800672AE601E60AF30101300A168A110023C9
:1004C8000A128A11E92B11306906031D6C2A6D2A5C
:1004D8007D2A08306606031D722A732A7D2A043095
:1004E800E600F30101300A168A1100230A128A1164
:1004F800E92BE92BF3010C300A168A1100230A12A2
:100508008A11A53083120313C000C00B892A8C2AD4
:1005180083160313680883120313A900E0300A1630
:100528008A114C250A128A11022C043083160313EF
:10053800E6000530E700F30101300A168A110023AE
:100548000A128A11043083120313C1003D30C0001F
:10055800C00BAC2AC10BAC2AF3010C300A168A1165
:1005680000230A128A11A53083120313C000C00B9E
:10057800BB2ABE2A022C83160313E601E60A83125D
:1005880003131211F3010C300A168A1100230A1200
:100598008A11B72A670883120313A9008316031365
:1005A80069080A128A15F0240A128A11013A0319F5
:1005B800992A023A0319BF2A022C670883120313E7
:1005C800A9008316031369080A128A1572210A12F0
:1005D8008A1183160313DF00022C670883120313A2
:1005E800A9008316031369080A128A1570260A12CD
:1005F8008A11022C67080A168A116A220A128A11BD
:10060800113A031D082B092B0F2B323083160313C5
:10061800E4000030E5000430831603136706031D69
:10062800162B172B282B7F3083120313A400883036
:10063800A50083160313680883120313A6000A167D
:100648008A11A3250A128A11831603136508803AB2
:10065800FF0080307F02031D332B01306402031C2E
:10066800362B372B022CFF3083160313E4070318AD
:10067800E50AFF30E50764086504031D442B452B94
:10068800022C0430E6000530E700F30101300A16B9
:100698008A1100230A128A11882867088312031313
:1006A800A9008316031369080A128A1109240A1279
:1006B8008A11113A031D612B622B682B6430831653
:1006C8000313E4000030E500831603136508803A3D
:1006D800FF0080307F02031D732B01306402031C6E
:1006E800762B772B022CFF3083160313E4070318AD
:1006F800E50AFF30E50764086504031D842B852B94
:10070800022C0430E6000530E700F30101300A1638
:100718008A1100230A128A11882864308316031369
:10072800E4000030E500F3010C300A168A110023BA
:100738000A128A11C02B043083160313E600053011
:10074800E700F3010C300A168A1100230A128A11F5
:100758008828670883120313A900831603136908FE
:100768000A128A159B230A128A11033A03199F2B2E
:10077800123A0319912BC02B831603136508803A8C
:10078800FF0080307F02031DCB2B01306402031C65
:10079800CE2BCF2B022CFF3083160313E40703184C
:1007A800E50AFF30E50764086504031DDC2BDD2B33
:1007B800022C0430E6000530E700F30101300A1688
:1007C8008A1100230A128A118828831603136608DF
:1007D800013A03197E2A033A0319CE2A063A031965
:1007E800E12A0C3A0319F12A183A0319FE2A503A59
:1007F8000319512BC03A0319AD2B022C831603138E
:10080800E70188280A128A110E2883120313AD0003
:1008180010302906031D112C122C9F2C0A168A1140
:100828005D260A128A110F308316031339058312C5
:100838000313AA008316031338080F39831203130E
:10084800AB00AC012B08F3002C08F4000A30F500CB
:100858000030F6000A168A1172210A128A118312D0
:1008680003132A087307C200003003180130740705
:10087800C3000F30831603133B0583120313AA002A
:10088800831603133A080F3983120313AB00AC0124
:100898002B08F3002C08F4000A30F5000030F600AD
:1008A8000A168A1172210A128A11831203132A085E
:1008B8007307C4000030031801307407C5000F30F7
:1008C800831603133D0583120313AA00831603132B
:1008D8003C080F3983120313AB00AC012B08F3005B
:1008E8002C08F4000A30F5000030F6000A168A11C8
:1008F80072210A128A11831203132A087307C60089
:100908000030031801307407C700B030A0008730EA
:10091800A1008030A2000A168A1199220A128A11AF
:10092800023083120313CF000030D000DC01DB015A
:100938003F30AD00DA015A080319A32CA42CD62D98
:100948002230F92E4F08AA002A07423E84000130BF
:1009580083138007840A0318800AE12D0330F3000B
:100968000030F4004F08013EF50050080318013E1E
:10097800003EF6000A128A1592200A128A1174089B
:1009880083120313D0007308CF00E12D0A168A11D1
:100998005D260A128A110A30F3000030F40083122F
:1009A80003134308F6004208F5000A168A116E235D
:1009B8000A128A11730883120313AA007408AB0081
:1009C8000A30A0000030A1004308A3004208A2009A
:1009D8000A168A111F240A128A1183120313200887
:1009E800AC0003300310AC0DFF3E031DF62C0310C2
:1009F8002C0D2A04B2004808C0393204C80048083F
:100A0800F40002300A168A1110210A128A110A30DB
:100A1800F3000030F400831203134508F60044087D
:100A2800F5000A168A116E230A128A1173088312B6
:100A38000313AA007408AB000A30A0000030A1001C
:100A48004508A3004408A2000A168A111F240A12A6
:100A58008A11831203132008AC0003300310AC0D75
:100A6800FF3E031D322D03102C0D2A04B200490845
:100A780080393204C9004908F40001300A168A1185
:100A880010210A128A110A30F3000030F400831290
:100A980003134708F6004608F5000A168A116E2364
:100AA8000A128A11730883120313AA007408AB0090
:100AB8000A30A0000030A1004708A3004608A200A1
:100AC8000A168A111F240A128A1183120313200896
:100AD800AC0003300310AC0DFF3E031D6E2D031058
:100AE8002C0D2A04B2004A0880393204CA004A0888
:100AF800F40000300A168A1110210A128A11F30133
:100B080001300A168A1100230A128A110C30831246
:100B18000313A0008830A1008230A2000A168A11AF
:100B280099220A128A11263083120313A0008830F2
:100B3800A100C230A2000A168A1199220A128A114B
:100B4800003083120313B1000030B0000030AF0052
:100B58000030AE00013083120313AE0700300318D3
:100B68000130AF07003003180130B0070030031818
:100B78000130B1073108031DD02D3008031DD02DD9
:100B88004E302F02031DCC2D20302E02031DCC2DFC
:100B9800031CCF2DD02DAE2D83120313DA01DA0AF0
:100BA8001130F92E2D081F3A0319CA2C303A0319AF
:100BB800B22C183A0319A62CE12D00304302183044
:100BC80003194202031CE92DEA2DEC2DC201C301D1
:100BD800003045023C3003194402031CF42DF52D66
:100BE800F72DC401C501003047023C300319460205
:100BF800031CFF2D002E022EC601C7010130FF0085
:100C08007F08DC0733305C06031D0B2E0C2EA42C4A
:100C1800DC015B080319112E132E0130142E00304D
:100C2800DB00C030A7000A30A0000030A100430854
:100C3800A3004208A2000A168A111F240A128A1168
:100C4800831203132008303E0A168A1192200A12D2
:100C58008A11C13083120313A7000A30F300003051
:100C6800F4004308F6004208F5000A168A116E23BC
:100C78000A128A117308303E0A168A1192200A1243
:100C88008A11C23083120313A7003A300A168A1158
:100C980092200A128A11C33083120313A7000A3064
:100CA800A0000030A1004508A3004408A2000A16CD
:100CB8008A111F240A128A11831203132008303E56
:100CC8000A168A1192200A128A11C4308312031359
:100CD800A7000A30F3000030F4004508F600440885
:100CE800F5000A168A116E230A128A117308303E1B
:100CF8000A168A1192200A128A11C5308312031328
:100D0800A7003A300A168A1192200A128A11C630B0
:100D180083120313A7000A30A0000030A10047087F
:100D2800A3004608A2000A168A111F240A128A1173
:100D3800831203132008303E0A168A1192200A12E1
:100D48008A11C73083120313A7000A30F30000305A
:100D5800F4004708F6004608F5000A168A116E23C3
:100D68000A128A117308303E0A168A1192200A1252
:100D78008A11831203135B080319C32EC42EA42CF3
:100D8800E92E2430A0008730A100C030A2000A1646
:100D98008A1199220A128A11A42C2430A0008730C3
:100DA800A100C330A2000A168A1199220A128A11D8
:100DB800A42C2430A0008730A100C630A2000A1657
:100DC8008A1199220A128A11A42C5008003A031990
:100DD800EE2EA42C4F08003A0319C52E013A031928
:100DE800D12E033A0319DD2EA42C08008316031311
:100DF80006083F38860008005234653420346534CC
:100E08006E3474346534723420346E346534773417
:100E1800203470347734643420342034203420343F
:100E2800003420342034203420342034203420343A
:100E3800203420342034203420342034203420340A
:100E480020342034003445346E34743465347234BC
:100E580020346E3465347734203470347734643415
:100E68002034203420342034003420345734523491
:100E78004F344E344734203450344134533453348F
:100E880057344F345234443420340034203420341E
:100E9800543449344D3445342034203420342034FB
:100EA80020344534203420345334503400347734DB
:100EB800613469347434203466346F3472342034C5
:100EC8002E342E343634303473346534633400347D
:100ED800503461347334733477346F347234643417
:100EE80020346334683461346E3467346534643470
:100EF8000034503461347334733477346F3472345B
:100F08006434203420346334683461346E34673494
:100F1800653400344E346F3420346C346F346734A5
:100F28007334203461347634613469346134623422
:100F38006C3465340034203445344E3454344534EC
:100F480052342034503441345334533457344F34AA
:100F58005234443420340034543469346D346534A4
:100F680020342834483448343A344D344D343A34F3
:100F7800533453342934003459346F34753420349D
:100F8800613472346534203462346C346F346334C1
:100F98006B346534643400346334683461346E34DB
:100FA800673465342034703461347334733477347F
:100FB8006F34723464340034613474347434653496
:100FC8006D34703474342034523465346D34613483
:100FD80069346E347334003444346F3477346E3487
:100FE8006C346F346134643420346C346F34673457
:100FF80020340034733475346334633465347334A3
:101008007334663475346C346C3479342034003479
:10101800543469346D34653420346334683461344D
:101028006E3467346534643400344C346F34673458
:101038007334203463346C34653461347234653409
:10104800643400345334753463346334653473342E
:101058007334663475346C346C34793400347334D6
:101068007534633463346534733473346634753477
:101078006C346C347934003473346534743420340B
:10108800743469346D3465342034003463346C341A
:1010980065346134723420346C346F34673400340E
:1010A800763469346534773420346C346F3467347B
:1010B80000344C346F346734733420343A34003499
:1010C8006634613469346C346534643400344C34C7
:1010D8006F34673473340034433420340034473475
:1010E8003134003447343234003447343334003434
:1010F80047343434003443344C34003444344C34AE
:10110800003447344E3400344334503400344734C8
:0A11180052340034433454340034E0
:10112400F801F61F962897289E28F509F609F50A6E
:101134000319F60AF801F80AF41FA128A228A7281F
:10114400F309F409F30A0319F40A7308740403197C
:10115400AC28AD28DC28F701F70ABB2801300310BE
:10116400F30DF40DFF3E031DB1280130FF007F088D
:10117400F707F41FBE28BF28B02874087602031DA1
:10118400C52873087502031CC828C928CF2873080A
:10119400F5027408031CF603F60201300310F40C84
:1011A400F30CFF3E031DD0280130F702031DDB289A
:1011B400DC28BF2878080319E028E128E628F50987
:1011C400F609F50A0319F60A7608F4007508F3001F
:1011D40008008312031306083F39F3003F307306F7
:1011E4000319F528F62802297A08031DFA28FB2892
:1011F4000229FA01FA0AE001E1017308F9007029F1
:101204003F307306031D072908291D297A0803198D
:101214000C290D291D29FA016108803AFF0080304C
:101224007F02031D17291E30600203181A291B2987
:101234007029790871297A08031921292229382962
:101244006108803AFF0080307F02031D2B291F3084
:10125400600203182E292F29382901308312031321
:10126400E0070318E10A0030E10770297A0803193E
:101274003C293D2954291F3083120313600661045D
:10128400031D45294629542937307306031D4B296C
:101294004C2954290130E0070318E10A0030E10722
:1012A400113071297A0803195829592970291F30D6
:1012B4008312031360066104031D612962297029E6
:1012C4002F307306031D6729682970290130E00750
:1012D4000318E10A0030E107223071293F30080089
:1012E40083120313AC0005302906031D7A297B29D8
:1012F4008129D301D4010130E2000030E30037300A
:101304002C06031D86298729B9295408803AFF0031
:1013140080307F02031D902904305302031893295F
:101324009429B929013083120313D3070318D40A6B
:101334000030D4076308803AFF0080307F02031D29
:10134400A529023062020318A829A929B12901306C
:1013540083120313E2070318E30A0030E307F301DF
:1013640001300A168A1100230A128A15F2292F3035
:10137400831203132C06031DC029C129F229540822
:10138400803AFF0080307F02031DCA2901305302D6
:10139400031CCD29CE29F229FF3083120313D3076E
:1013A4000318D40AFF30D4076308803AFF00803062
:1013B4007F02031DDF2902306202031CE229E329B4
:1013C400EB29FF3083120313E2070318E30AFF300B
:1013D400E307F30101300A168A1100230A128A1561
:1013E4008312031362036304031DF929FA292D2AC6
:1013F4008030A7002A300A168A1192200A128A1510
:10140400831203135308AA002A07D03E84008313CF
:101414000008A000840A00088403A1008230A2000E
:101424000A168A1199220A128A1583120313530881
:10143400AA002A07D23E840083130008A000840A6D
:1014440000088403A100C230A2000A168A1199225E
:101454000A128A155F2AC030A7002A300A168A1198
:1014640092200A128A15831203135308AA002A072A
:10147400CE3E840083130008A000840A000884037D
:10148400A1008230A2000A168A1199220A128A1532
:10149400831203135308AA002A07D03E840083133F
:1014A4000008A000840A00088403A100C230A2003E
:1014B4000A168A1199220A128A15831203135308F1
:1014C4000800FF3083120313AF00FF30B000AB01FC
:1014D400640A031D712A650A031D712A722A7C2A73
:1014E4008E30F4008730F5000A168A1197210A120B
:1014F4008A159A2B5D30F4008830F5000A168A119B
:1015040097210A128A150A300A168A112A200A1209
:101514008A150A300A168A112A200A128A150D30F1
:101524000A168A112A200A128A158A2B013083127C
:101534000313AF070318B00A0030B0075F08031D98
:10154400A42AA52AA82AAD01AE01BF2A0A30F300B5
:101554000030F4006608013EF50067080318013EF8
:10156400003EF6000A128A1592200A128A1574089F
:1015740083120313AE007308AD000A30F300003089
:10158400F4002F082D07F50030080318300A2E0741
:10159400F6000A128A1592200A128A157408831218
:1015A4000313AE007308AD00B101B2010A30F300B9
:1015B400831203132D080A168A11A7200A128A150A
:1015C400831203133107053EAC003108213E840029
:1015D4002C080A168A1112220A128A158313800013
:1015E400013083120313B1070318B20A0030B207A3
:1015F4003208803AFF0080307F02031D032B0A303B
:101604003102031C062B072BD82A831203132F083D
:10161400303E0A168A112A200A128A1520300A1628
:101624008A112A200A128A158312031321080A1622
:101634008A112A200A128A158312031322080A1611
:101644008A112A200A128A153A300A168A112A2087
:101654000A128A158312031323080A168A112A20F0
:101664000A128A158312031324080A168A112A20DF
:101674000A128A153A300A168A112A200A128A1581
:101684008312031325080A168A112A200A128A15BE
:101694008312031326080A168A112A200A128A15AD
:1016A40020300A168A112A200A128A15831203137B
:1016B40027080A168A112A200A128A15831203138C
:1016C40028080A168A112A200A128A1520300A16B6
:1016D4008A112A200A128A158312031329080A166A
:1016E4008A112A200A128A15831203132A080A1659
:1016F4008A112A200A128A150A300A168A112A2007
:101704000A128A150D300A168A112A200A128A151D
:10171400831203133008803AA0006508803A20023F
:10172400031D962B64082F02031C992B9A2B982ACD
:10173400080083120313AA002903031DA22BA32B61
:10174400BA2B2230F3008730F4000430F500003067
:10175400F600AF300A168A1165240A128A1583121C
:101764000313CD01CE01D9011E30D5000030D600BF
:1017740055085604031DBF2BC02BC22B0330EF2C7E
:1017840059080319C62BC72BC92B2230EF2C4E083E
:10179400803AFF0080307F02031DD22B04304D02BB
:1017A4000318D52BD62BE42B273083120313A00068
:1017B4008730A1008030A2000A168A1199220A12E9
:1017C4008A156E2C831203134E08803AFF00803072
:1017D4007F02031DEF2B04304D02031CF22BF32B6D
:1017E4006E2C831203134E08803AFF0080307F0270
:1017F400031DFE2B08304D020318012C022C6E2C05
:10180400003083120313A0008730A1008030A200AF
:101814000A168A1199220A128A156E2C4D08AF3EB7
:1018240084003030831380004D080339C03EA70084
:101834002A300A168A1192200A128A15013083125C
:101844000313CD070318CE0A0030CE071E30D5008F
:101854000030D60004304D064E04031D322C332CC8
:10186400782C1530A0008730A100C030A2000A16E1
:101874008A1199220A128A15782C4D08AF3E8400E9
:101884003130831380004D080339C03EA7002A304D
:101894000A168A1192200A128A1501308312031340
:1018A400CD070318CE0A0030CE071E30D500003015
:1018B400D60004304D064E04031D612C622C782C96
:1018C4001530A0008730A100C030A2000A168A118A
:1018D40099220A128A15782C831203132A082F3AA4
:1018E4000319102C183A03193F2C782C0830831252
:1018F40003134D064E04031D802C812CC72BB330DB
:10190400F3000430F4000030F500AF300A168A11F9
:10191400FC240A128A1573087404031D922C932C58
:10192400CD2C83160313B701B330F60000300A162A
:101934008A11D5200A128A15013083120313CD07A8
:101944000318CE0A0030CE07F30101300A168A11BB
:1019540000230A128A156C3083120313A000873007
:10196400A1008030A2000A168A1199220A128A154F
:10197400FE3083120313A0008730A100C230A200FE
:101984000A168A1199220A128A1583120313D9019D
:10199400D90A1130EF2CF30101300A168A11002301
:1019A4000A128A157D3083120313A0008730A10028
:1019B4008030A2000A168A1199220A128A1564300C
:1019C40083120313A0008830A100C530A2000A16B8
:1019D4008A1199220A128A15C72C0800831203134C
:1019E400B1002903031DF72CF82C0C2D3F30B10056
:1019F4000330DD00DE01D701D80183160313BF01D4
:101A0400C001C101C201C301053083120313D50013
:101A14000030D60055085604031D112D122D142D27
:101A240003306F2EF3010F300A168A1100230A12B5
:101A34008A153730831203133106031D222D232DFB
:101A4400432D04305E020318282D292D432D053023
:101A5400D5000030D6005E08BF3E840031308313C9
:101A640080005E08C63EA7002A300A168A1192201A
:101A74000A128A150130FF007F0883120313DE0760
:101A8400632D2F303106031D482D492D632D04305D
:101A94005E0203184E2D4F2D632D0530D500003006
:101AA400D6005E08BF3E84003030831380005E0899
:101AB400C63EA7002A300A168A1192200A128A15F5
:101AC4003C2D04305E06031D682D692D6E2E2C30CE
:101AD4000A168A11BD210A128A152C30F300BF3070
:101AE4000A168A113D220A128A1573087404031D0A
:101AF4007C2D7D2D7F2D01306F2E01308312031339
:101B0400DD02031D862D872DF92DF3010C300A16F5
:101B14008A1100230A128A15F30101300A168A1168
:101B240000230A128A15043083120313AB003D30DC
:101B3400AA00AA0B9B2DAB0B9B2DC0308312031361
:101B4400A0008730A1008030A2000A168A119922D1
:101B54000A128A155B3083120313A0008730A10098
:101B6400C030A2000A168A1199220A128A153C3042
:101B740083120313D7000030D800EE2DCB30A7001A
:101B84000A30F3000030F4005808F6005708F50056
:101B94000A168A1128270A128A157308303E0A1673
:101BA4008A1192200A128A15CC3083120313A700DB
:101BB4000A30F3000030F4005808F6005708F50026
:101BC4000A128A1592200A128A157308303E0A16E0
:101BD4008A1192200A128A15831203135708580493
:101BE400031DF52DF62DC02D0330DD00492EF30124
:101BF40001300A168A1100230A128A15043083124E
:101C04000313AB003D30AA00AA0B062EAB0B062E25
:101C1400F3010C300A168A1100230A128A15A53022
:101C240083120313AA00AA0B152E182E393083121F
:101C34000313A0008730A1008030A2000A168A1185
:101C440099220A128A15C03083120313A7005D0873
:101C5400303E0A168A1192200A128A15E030831245
:101C64000313A0008730A100C230A2000A168A1113
:101C740099220A128A15033083120313D700003005
:101C8400D80057085804031D482E492E432EF3014B
:101C940001300A168A1100230A128A1504308312AD
:101CA4000313AB003D30AA00AA0B562EAB0B562EE5
:101CB4009F3083120313A0008730A1008030A2005C
:101CC4000A168A1199220A128A1583120313DE0155
:101CD4000530D5000030D6001030080083120313FD
:101CE400B700B501640A031D7B2E650A031D7B2E14
:101CF4007C2E882E8E30A0008730A100C030A20038
:101D04000A168A1199220A128A15FF2F0830290609
:101D1400031D8D2E8E2E902ED101D2015F08031D3E
:101D2400942E952E982EBC01BD01AF2E0A30F300DF
:101D34000030F4006608013EF50067080318013E10
:101D4400003EF6000A128A1592200A128A157408B7
:101D540083120313BD007308BC0037303706031D1C
:101D6400B42EB52ED72E5208803AAA006508803AC0
:101D74002A02031DBF2E640851020318C22EC32E6B
:101D8400D72E013083120313D1070318D20A00306F
:101D9400D2071530A0008730A100C030A2000A1677
:101DA4008A1199220A128A15FF2E2F3083120313E7
:101DB4003706031DDE2EDF2EFF2E5208803AFF0069
:101DC40080307F02031DE82E01305102031CEB2EEC
:101DD400EC2EFF2EFF3083120313D1070318D20A0F
:101DE400FF30D2071530A0008730A100C030A20018
:101DF4000A168A1199220A128A150A30F300003051
:101E0400F4008312031351083C07F5005208031829
:101E1400520A3D07F6000A128A1592200A128A1500
:101E2400740883120313BD007308BC00BE01BF0114
:101E34000A30F300831203133C080A168A11A72000
:101E44000A128A15831203133E07053EB6003E08A4
:101E54002B3E840036080A168A1112220A128A15A9
:101E640083138000013083120313BE070318BF0AD3
:101E74000030BF073F08803AFF0080307F02031D17
:101E8400452F0A303E02031C482F492F1A2FC03019
:101E940083120313A7005108303E0A168A119220B8
:101EA4000A128A15C23083120313A7002B080A16DC
:101EB4008A1192200A128A15C33083120313A700D1
:101EC4002C080A168A1192200A128A15C430831229
:101ED4000313A7003A300A168A1192200A128A15AF
:101EE400C53083120313A7002D080A168A11922005
:101EF4000A128A15C63083120313A7002E080A1685
:101F04008A1192200A128A15C73083120313A7007C
:101F14003A300A168A1192200A128A15C83083129E
:101F24000313A7002F080A168A1192200A128A1591
:101F3400C93083120313A70030080A168A119220AD
:101F44000A128A15CB3083120313A70031080A162C
:101F54008A1192200A128A15CC3083120313A70027
:101F640032080A168A1192200A128A15CE30831278
:101F74000313A70033080A168A1192200A128A153D
:101F8400CF3083120313A70034080A168A11922053
:101F94000A128A15003083120313BB000030BA0002
:101FA4000030B9000030B800013083120313B807C1
:101FB400003003180130B907003003180130BA07A4
:101FC400003003180130BB073B08031DF82F3A0803
:101FD400031DF82F4E303902031DF42F2030380230
:101FE400031DF42F031CF72FF82FD62FF3010C3009
:101FF4000A168A1100230A128A150800FF1B0A28F0
:1020040083137F1883170008840A0319FF0A080042
:102014007F087F398A000408840A0319FF0A8200B2
:10202C000A168A1140200A168A118316031391147A
:10203C000800F3000A168A1140200A168A11730848
:10204C008312031393000800F30073088312031325
:10205C0099000C1E322833282F280C1208008316E6
:10206C0003138801091189100A168A1191270A167F
:10207C008A11080083160313141945284628402892
:10208C0011081F39031D4B284C28402808008312C7
:10209C00031312149214FA308316031392008C1447
:1020AC008312031312110800831203131F151F1937
:1020BC00602861285D281E08F600831603131E088D
:1020CC00F5007608F4007508F300080000300A16D5
:1020DC008A11E7210A168A11F70077087F39F70071
:1020EC007708F40000300A168A1110210A168A119A
:1020FC0008007E088A007F0882000A168A117F2059
:10210C000A168A118000840A04087D06031900341B
:10211C00FF0A0319FE0A832883120313A800F30194
:10212C0027080A168A1100230A168A11F301F30AEA
:10213C008312031328080A168A1100230A168A111F
:10214C000800F500F401751CAC28AD28B128730803
:10215C00FF007F08F4070310F30D0310F50C75084E
:10216C00031DB928BA28A9287408080085348834B6
:10217C008B348834733488347634883479348834A6
:10218C007C348834543488344A348834F03487347A
:10219C0040348834D03487344F344E340034F70014
:1021AC00E928760884000008F40077080A168A11DA
:1021BC00F2200A168A110130FF007F08F607013061
:1021CC00FF007F08F7077608840083130008031DBF
:1021DC00F028F128D7280800F5000A168A15EE27F2
:1021EC000A168A11A0300A168A111F200A168A11A3
:1021FC0075080A168A111F200A168A1174080A1605
:10220C008A111F200A168A110A168A15F7270A1630
:10221C008A110800F5000A168A15EE270A168A118B
:10222C00D0300A168A111F200A168A1175080A1650
:10223C008A111F200A168A1174080A168A111F2087
:10224C000A168A110A168A15F7270A168A11080027
:10225C00F3000A168A1140200A168A1183160313FA
:10226C0091150A168A1140200A168A11831203133B
:10227C001308F4007303031D4429452949298316C7
:10228C00031391164C29831603139112111674081B
:10229C000800F8007808F7007408F6007308F500D9
:1022AC00F30A0319F40A760883120313FF00750866
:1022BC0084000A168A1100200A168A11FF0077087A
:1022CC0084000130F7077F08831380000008031D8A
:1022DC007029712952290800F701F801731C77291C
:1022EC0078297E297508F7070318F80A7608F80785
:1022FC0001300310F50DF60DFF3E031D7F29013053
:10230C000310F40CF30CFF3E031D862973087404B0
:10231C00031D9129922974297808F4007708F30099
:10232C000800AC297508FF00740884000A168A118D
:10233C0000200A168A110A168A112A200A168A11F6
:10234C000130F4070318F50A0030F50775088312FD
:10235C000313FF00740884000A168A1100200A1661
:10236C008A11003A031DBB29BC2998290800831245
:10237C000313A000A101A20183120313210820075B
:10238C00F7007708840021080A168A1112220A160F
:10239C008A1183138000013083120313A1070318E1
:1023AC00A20A0030A2072208803AFF0080307F0288
:1023BC00031DE22905302102031CE529E629C22967
:1023CC000800F5000A168A15EE270A168A11D03075
:1023DC000A168A111F200A168A1175080A168A1104
:1023EC001F200A168A110A168A1116200A168A113B
:1023FC00D1300A168A111F200A168A1100300A16CB
:10240C008A112E210A168A11F6000A168A15F72748
:10241C000A168A1176080800F5000A168A15EE27A6
:10242C000A168A11A0300A168A111F200A168A1160
:10243C0075080A168A111F200A168A110A168A11A3
:10244C0016200A168A11A1300A168A111F200A16A4
:10245C008A1100300A168A112E210A168A11F600EA
:10246C000A168A15F7270A168A1176080800F7004B
:10247C00472A0130FF007F08F7070130FF007F0873
:10248C00F3077308840083130008F50077088400B1
:10249C0000087506031D532A542A5B2A770884000A
:1024AC000008031D5A2A5B2A3F2A7308840000087F
:1024BC00F500770884000008F60075087602F30032
:1024CC00F401031CF4030800F70019308312031302
:1024DC00A0008830A1008230A2000A168A1199222D
:1024EC000A168A11333083120313A0008830A1001E
:1024FC00C230A2000A168A1199220A168A110430D7
:10250C007706031D8A2A8B2A972AFF30831203131E
:10251C00E600FF30E700FF30E400FF30E50011304B
:10252C00982A22300800F3018312031322080A169A
:10253C008A1100230A168A11BB2AF301F30A210817
:10254C00FF00200884000A168A1100200A168A113E
:10255C000A168A1100230A168A11013083120313FA
:10256C00A0070318A10A0030A10783120313210846
:10257C00FF00200884000A168A1100200A168A110E
:10258C00003A031DCA2ACB2AA32A0800831203137C
:10259C0094152808AC002908AD002A08AE002B08B9
:1025AC00AF0002300310AC0DAD0DAE0DAF0DFF3E04
:1025BC00031DD82A2F08A3002E08A2002D08A10065
:1025CC002C08A0000130A7003130A6002D30A5004A
:1025DC000030A4000A168A11C0260A168A1183122A
:1025EC0003132008FF3E8316031393008312031377
:1025FC0094160800F6007318042B082B831203138F
:10260C0009150B2B8312031309117608F039880076
:10261C008914A630F400F40B112B00008312031361
:10262C00891076080F39F40003300310F40DFF3EC7
:10263C00031D1B2B0310740D88008914A630F400A5
:10264C00F40B262B00008312031389101B30F500AA
:10265C009E30F400F40B302BF50B302B00000800EF
:10266C0083120313981783160313181598168312E5
:10267C00031318162808AC002908AD002A08AE0070
:10268C002B08AF0004300310AC0DAD0DAE0DAF0D2B
:10269C00FF3E031D492B2F08A3002E08A2002D0876
:1026AC00A1002C08A0000130A7003130A6002D306D
:1026BC00A5000030A4000A168A11C0260A168A1139
:1026CC00831203132008FF3E83160313990008009E
:1026DC00730874040319732B742BA32BF701F70ADB
:1026EC00822B01300310F30DF40DFF3E031D782BEC
:1026FC000130FF007F08F707F41F852B862B772B03
:10270C0074087602031D8C2B73087502031C8F2B27
:10271C00902B962B7308F5027408031CF603F60233
:10272C0001300310F40CF30CFF3E031D972B01300A
:10273C00F702031DA22BA32B862B7608F400750839
:10274C00F30008000A168A1135200A168A11003087
:10275C0083120313AB000130AA008630A900A0300D
:10276C00A8000A168A11CC220A168A110A168A1196
:10277C006C200A168A110A168A15D7270A168A118E
:10278C000A128A11FA260A168A110A168A114D2083
:10279C000A168A11003083120313AB000030AA0012
:1027AC002530A9008030A8000A168A1136230A1693
:1027BC008A118B170B170800013083120313E607DD
:1027CC000318E70A0030E7070A3066066704031DA2
:1027DC00F02BF12BF52BE601E701DF01DF0A0A30C4
:1027EC00F30066080A168A11A7200A168A11053EFC
:1027FC00F800A430F60078080A168A11D5200A16BB
:10280C008A11831203136508803AFF0080307F021F
:10281C00031D122C093064020318152C162C1E2CC7
:10282C00013083120313E4070318E50A0030E507AF
:10283C00080083120313A501A60120082104031923
:10284C00282C292C602CA401A40A372C013003104D
:10285C00A00DA10DFF3E031D2D2C0130FF007F08A4
:10286C00A407A11F3A2C3B2C2C2C01300310A50DD6
:10287C00A60DFF3E031D3C2C21082302031D482CF2
:10288C0020082202031C4B2C4C2C532C2008A20297
:10289C002108031CA303A302251401300310A10C6F
:1028AC00A00CFF3E031D542C0130A402031D5F2C11
:1028BC00602C3B2C2608A1002508A00008008312E0
:1028CC000313A0002008A1008F2C0130F50200306A
:1028DC00031CF603F6027408F8007308F700F30AF9
:1028EC000319F40A7808FF00770884000A168A1185
:1028FC0000200A168A11FF00210884000130A1076C
:10290C007F08831380000008031D8D2C8E2C8F2CC8
:10291C009E2C75087604031D942C952C6B2C9E2CE8
:10292C0021088400831380010130FF007F08A10778
:10293C000130F5020030031CF603F602750A031D84
:10294C00AB2C760A031DAB2CAC2C962C08008312F6
:10295C0003138C1CB22CB32CF32C0130CB070318B3
:10296C00CC0A0030CC07E2304B06043003194C067D
:10297C00031DC12CC22CF02CCB01CC015808803A81
:10298C00FF0080307F02031DCD2C01305702031C49
:10299C00D02CD12CD92CFF3083120313D70703185A
:1029AC00D80AFF30D807831203135608803AFF0069
:1029BC0080307F02031DE42C01305502031CE72CF0
:1029CC00E82CF02CFF3083120313D5070318D60A1A
:1029DC00FF30D607831203138C107208FF007108A6
:1029EC008A00700E8300FE0E7E0E0900F800013086
:1029FC00F4020030031CF503F502740A031D0A2DC2
:102A0C00750A031D0A2D0B2D1C2DF301F4014B2D02
:102A1C000130FF007F08F8070130FF007F08F30743
:102A2C000130F4020030031CF503F5027808840031
:102A3C00831300080319232D242D3D2D73088400C6
:102A4C00000803192A2D2B2D3D2D7408750403192C
:102A5C00302D312D3D2D730884000008F6007808C8
:102A6C0084000008760603193C2D3D2D0E2D7308AD
:102A7C0084000008F600780884000008F700760847
:102A8C007702F300F401031CF40308008312031310
:102A9C00AC004A30A0008730A1008030A2000A169A
:102AAC008A1199220A168A11831203132C08A0008A
:102ABC000030A100CB30A2000A168A1199220A1606
:102ACC008A11CE3083120313A7000A30F3000030B2
:102ADC00F4002908AA00AB012A08F5002B08F6001F
:102AEC000A168A1128270A168A117308303E0A160C
:102AFC008A1192200A168A11CF3083120313A70071
:102B0C000A30F3000030F4002908AA00AB012A08AF
:102B1C00F5002B08F6000A128A1592200A168A1163
:102B2C007308303E0A168A1192200A168A110A1668
:102B3C008A11FB250A168A1108000A168A115D26CD
:102B4C000A168A11B830F3000030F4000630F50094
:102B5C000030F600A4300A168A1165240A168A1170
:102B6C00831203132408F3002508F4000230F50047
:102B7C000030F600AA300A168A1165240A168A114A
:102B8C000A30F3000030F400831203132608A70068
:102B9C00A8012708F5002808F6000A168A1128272C
:102BAC000A168A117308303E83160313AC000A30E0
:102BBC00F3000030F400831203132608A700A801C9
:102BCC002708F5002808F6000A128A1592200A1622
:102BDC008A117308303E83160313AD00AE010A163A
:102BEC008A11E2230A168A1108000A168A115D2638
:102BFC000A168A11C23083120313A700831603131B
:102C0C0038080A168A1192200A168A11C3308312C8
:102C1C000313A7008316031339080A168A1192208E
:102C2C000A168A11C43083120313A7003A300A160D
:102C3C008A1192200A168A11C53083120313A70039
:102C4C00831603133A080A168A1192200A168A115F
:102C5C00C63083120313A700831603133B080A160E
:102C6C008A1192200A168A11C73083120313A70007
:102C7C003A300A168A1192200A168A11C830831229
:102C8C000313A700831603133C080A168A1192201B
:102C9C000A168A11C93083120313A7008316031373
:102CAC003D080A168A1192200A168A110800023071
:102CBC000A168A11E7210A168A1183120313C80017
:102CCC0001300A168A11E7210A168A11831203139E
:102CDC00C90000300A168A11E7210A168A118312DC
:102CEC000313CA004808F70004300310F70CFF3E2A
:102CFC00031D7B2E77080339303E83160313B8006F
:102D0C008312031348080F39303E83160313B9009E
:102D1C00831203134908F70004300310F70CFF3E2D
:102D2C00031D932E77080739303E83160313BA0020
:102D3C008312031349080F39303E83160313BB006B
:102D4C00831203134A08F70004300310F70CFF3EFC
:102D5C00031DAB2E77080739303E83160313BC00D6
:102D6C00831203134A080F39303E83160313BD0038
:102D7C00BE0108000030F7000030F6000030F5000E
:102D8C000030F400831203132308220421042004CE
:102D9C000319D12ED22E1F2FF801F80AE22E013082
:102DAC00F3000310A00DA10DA20DA30DF30BD72E54
:102DBC000130FF007F08F807A31FE52EE62ED52E65
:102DCC000130F3000310F40DF50DF60DF70DF30BB8
:102DDC00E82E23082702031DFD2E22082602031DC0
:102DEC00FD2E21082502031DFD2E20082402031CA4
:102DFC00002F012F102F2008A4022108031C210FE3
:102E0C00A5022208031C220FA6022308031C230F71
:102E1C00A702741401300310A30CA20CA10CA00C7B
:102E2C00FF3E031D112F0130F802031D1E2F1F2F13
:102E3C00E62E7708A3007608A2007508A100740896
:102E4C00A000080083120313A101F41F2E2F2F2FB3
:102E5C00362FF309F409F30A0319F40AA101A10AA4
:102E6C00F61F392F3A2F432FF509F609F50A0319E6
:102E7C00F60A0130FF007F08A106A201A301730826
:102E8C00740403194A2F4B2F822FA001A00A592F2B
:102E9C0001300310F30DF40DFF3E031D4F2F0130D5
:102EAC00FF007F08A007F41F5C2F5D2F4E2F013011
:102EBC000310A20DA30DFF3E031D5E2F74087602B6
:102ECC00031D6A2F73087502031C6D2F6E2F752F4F
:102EDC007308F5027408031CF603F6022214013081
:102EEC000310F40CF30CFF3E031D762F0130A002EF
:102EFC00031D812F822F5D2F21080319862F872F09
:102F0C008C2FA209A309A20A0319A30A2308F4000F
:102F1C002208F3000800C330F800CD30F700F70B9F
:102F2C00952FF80B952FF30133300A168A110023D5
:102F3C000A168A111B30F8009E30F700F70BA42FED
:102F4C00F80BA42F0000F30133300A168A1100236A
:102F5C000A168A11A630F700F70BB22F0000F30106
:102F6C0033300A168A1100230A168A11BD2FBE2F80
:102F7C000000F30102300A168A1100230A168A1186
:102F8C00A630F700F70BC82F0000F30128300A1603
:102F9C008A1100230A168A11A630F700F70BD42FDA
:102FAC000000F30101300A168A1100230A168A1157
:102FBC000430F8003D30F700F70BE22FF80BE22F4E
:102FCC00E72FF3010C300A168A1100230A168A1116
:102FDC00A630F700F70BF02F0000F3010F300A16A4
:102FEC008A1100230A168A11A630F700F70BFC2F62
:042FFC0000000800C9
:103FAE00831603139F17831203131F140800640054
:103FBE008001840A0406031900340406DF2F01343D
:103FCE00003401340034FF34FF34FF34FF340A165A
:103FDE008A1140200A168A1583160313111408003D
:103FEE000A168A1140200A168A1583160313111514
:0A3FFE000800FF3FFF3FFF3FFF3FB9
:02400E00FB3F76
:00000001FF
